AL10M7Y10WMBENNET    TERESA       1008200107550000    1008201812550000     23046575
AL10D8Y20DSHARRISON  TYLER        1008201005200000    1008201809200000     17547500
AL10D6N30DSJOHNSON   KANDIE       1210201203570000    1210201805570000     17547500
AL10OY9T4OWPETERS    CARL         0308201403787887    0308201804780000     12552545
AL10O8N50OWMASTERS   MARCUS       0522201203380050    0522201805380000     12552545
AL10W9M60OWGOMEZ     SELENA       0629201003459850    0629201806450000     12552545
AL10W9M70WWJANSEN    JACOB        0806201603280000    0806201803580000     07555065
AL10W3L80WWHARLEY    STEPHEN      1109201703564589    1109201803760000     07555065
AL10W3D90WWYOUNG     EDWARD       1008201003790000    1008201805790000     07555065
AL10W3100WWSANTIAGO  SHAWN        0712201303587877    0712201804580000     07555065
AL10E4110WSCAMERON   HALEY        0322201106358000    0322201807350000     00042525
AL10E8120WSMICHAELS  SOPHIA       0912201205980960    0912201807980000     00042525
GA11L8Y11WMCARTER    THOMAS       1106200308654500    1108201809053000     23546075
GA11M9Z22DSDENSON    TRACY        0908201606513545    1108201807250050     15542500
GA11D6N40DSSMITH     PETE         1001200205582535    1210201805970000     15542500
GA11I23J9OWHARRIS    SAMUAL       0230201304956500    1229201805450000     11050045
GA11D32L3WWLESTER    ETHEL        0413200603797835    1108201804291000     06547065
GA11G45W3WWSANTIAGO  KARL         0327200003580189    1112201803780000     06547065
GA11M42T8WSCAMERON   HALEY        0502200404358898    1222201804556600     00043025
MS12R43W5WMBRATHEM   BRYAN        0917201505550050    1008201805850000     21046575
MS12S65W7DSWEST      TREY         1112201704780045    1008201805000000     11547500
MS12V98W6OWYOSTER    CINDY        0130201803276535    0308201803350000     11542545
MS12X89Y6WWMUNCE     DWAYNE       1228201703794367    1008201804295000     05545065
MS12C63D6WWSANDERS   CRAIG        0611201203480098    0712201803865500     05545065
MS12T78P0WSHALETTE   JAMES        0729200904554598    0322201805855600     00042525